{
  "address": "0xe7f1725E7734CE288F8367e1Bb143E90bb3F0512",
  "abi": [
    {
      "inputs": [
        {
          "internalType": "address",
          "name": "_encryptionVerifier",
          "type": "address"
        }
      ],
      "stateMutability": "nonpayable",
      "type": "constructor"
    },
    {
      "anonymous": false,
      "inputs": [
        {
          "indexed": true,
          "internalType": "address",
          "name": "bounty",
          "type": "address"
        }
      ],
      "name": "BountyCreated",
      "type": "event"
    },
    {
      "inputs": [
        {
          "internalType": "uint256",
          "name": "",
          "type": "uint256"
        }
      ],
      "name": "bounties",
      "outputs": [
        {
          "internalType": "address",
          "name": "",
          "type": "address"
        }
      ],
      "stateMutability": "view",
      "type": "function"
    },
    {
      "inputs": [],
      "name": "bountyCount",
      "outputs": [
        {
          "internalType": "uint256",
          "name": "",
          "type": "uint256"
        }
      ],
      "stateMutability": "view",
      "type": "function"
    },
    {
      "inputs": [],
      "name": "bountyTemplate",
      "outputs": [
        {
          "internalType": "address",
          "name": "",
          "type": "address"
        }
      ],
      "stateMutability": "view",
      "type": "function"
    },
    {
      "inputs": [
        {
          "internalType": "string",
          "name": "_name",
          "type": "string"
        },
        {
          "internalType": "string",
          "name": "_description",
          "type": "string"
        },
        {
          "internalType": "bytes[]",
          "name": "_dataCIDs",
          "type": "bytes[]"
        },
        {
          "internalType": "uint256[]",
          "name": "_labels",
          "type": "uint256[]"
        },
        {
          "internalType": "uint256",
          "name": "_accuracyThreshold",
          "type": "uint256"
        }
      ],
      "name": "createBounty",
      "outputs": [
        {
          "internalType": "address",
          "name": "",
          "type": "address"
        }
      ],
      "stateMutability": "payable",
      "type": "function"
    },
    {
      "inputs": [],
      "name": "encryptionVerifier",
      "outputs": [
        {
          "internalType": "address",
          "name": "",
          "type": "address"
        }
      ],
      "stateMutability": "view",
      "type": "function"
    }
  ],
  "transactionHash": "0xe18cb7773be2d70378b977a69dc78c4acbcf48cb696c23f658e0064f3aa49d38",
  "args": [
    "0x5FbDB2315678afecb367f032d93F642f64180aa3"
  ],
  "numDeployments": 1,
  "solcInputHash": "a63766806988ed654116af702c7b5319",
  "bytecode": "0x60c06040523480156200001157600080fd5b506040516200534338038062005343833981810160405281019062000037919062000149565b8073ffffffffffffffffffffffffffffffffffffffff1660808173ffffffffffffffffffffffffffffffffffffffff16815250506040516200007990620000d1565b604051809103906000f08015801562000096573d6000803e3d6000fd5b5073ffffffffffffffffffffffffffffffffffffffff1660a08173ffffffffffffffffffffffffffffffffffffffff1681525050506200017b565b61433a806200100983390190565b600080fd5b600073ffffffffffffffffffffffffffffffffffffffff82169050919050565b60006200011182620000e4565b9050919050565b620001238162000104565b81146200012f57600080fd5b50565b600081519050620001438162000118565b92915050565b600060208284031215620001625762000161620000df565b5b6000620001728482850162000132565b91505092915050565b60805160a051610e5a620001af60003960008181610169015261021501526000818161013f01526102600152610e5a6000f3fe60806040526004361061004a5760003560e01c80632ee945411461004f5780633e362c961461007a57806347e66947146100a5578063dc2f8744146100d0578063e2b47c561461010d575b600080fd5b34801561005b57600080fd5b5061006461013d565b6040516100719190610499565b60405180910390f35b34801561008657600080fd5b5061008f610161565b60405161009c91906104cd565b60405180910390f35b3480156100b157600080fd5b506100ba610167565b6040516100c79190610499565b60405180910390f35b3480156100dc57600080fd5b506100f760048036038101906100f29190610528565b61018b565b6040516101049190610499565b60405180910390f35b610127600480360381019061012291906108e5565b6101ca565b6040516101349190610499565b60405180910390f35b7f000000000000000000000000000000000000000000000000000000000000000081565b60015481565b7f000000000000000000000000000000000000000000000000000000000000000081565b6000818154811061019b57600080fd5b906000526020600020016000915054906101000a900473ffffffffffffffffffffffffffffffffffffffff1681565b600080341161020e576040517f08c379a000000000000000000000000000000000000000000000000000000000815260040161020590610a53565b60405180910390fd5b60006102397f000000000000000000000000000000000000000000000000000000000000000061039e565b90508073ffffffffffffffffffffffffffffffffffffffff166316bb7c4634338a8a8a8a8a7f00000000000000000000000000000000000000000000000000000000000000006040518963ffffffff1660e01b81526004016102a19796959493929190610cb6565b6000604051808303818588803b1580156102ba57600080fd5b505af11580156102ce573d6000803e3d6000fd5b50505050506000819080600181540180825580915050600190039060005260206000200160009091909190916101000a81548173ffffffffffffffffffffffffffffffffffffffff021916908373ffffffffffffffffffffffffffffffffffffffff1602179055508073ffffffffffffffffffffffffffffffffffffffff167f296fd2c434595e170589ead76f71af701ab651dd12e03e8c108123ec7c809a7360405160405180910390a26001600081548092919061038c90610d70565b91905055508091505095945050505050565b6000763d602d80600a3d3981f3363d3d373d3d3d363d730000008260601b60e81c176000526e5af43d82803e903d91602b57fd5bf38260781b17602052603760096000f09050600073ffffffffffffffffffffffffffffffffffffffff168173ffffffffffffffffffffffffffffffffffffffff1603610453576040517f08c379a000000000000000000000000000000000000000000000000000000000815260040161044a90610e04565b60405180910390fd5b919050565b600073ffffffffffffffffffffffffffffffffffffffff82169050919050565b600061048382610458565b9050919050565b61049381610478565b82525050565b60006020820190506104ae600083018461048a565b92915050565b6000819050919050565b6104c7816104b4565b82525050565b60006020820190506104e260008301846104be565b92915050565b6000604051905090565b600080fd5b600080fd5b610505816104b4565b811461051057600080fd5b50565b600081359050610522816104fc565b92915050565b60006020828403121561053e5761053d6104f2565b5b600061054c84828501610513565b91505092915050565b600080fd5b600080fd5b6000601f19601f8301169050919050565b7f4e487b7100000000000000000000000000000000000000000000000000000000600052604160045260246000fd5b6105a88261055f565b810181811067ffffffffffffffff821117156105c7576105c6610570565b5b80604052505050565b60006105da6104e8565b90506105e6828261059f565b919050565b600067ffffffffffffffff82111561060657610605610570565b5b61060f8261055f565b9050602081019050919050565b82818337600083830152505050565b600061063e610639846105eb565b6105d0565b90508281526020810184848401111561065a5761065961055a565b5b61066584828561061c565b509392505050565b600082601f83011261068257610681610555565b5b813561069284826020860161062b565b91505092915050565b600067ffffffffffffffff8211156106b6576106b5610570565b5b602082029050602081019050919050565b600080fd5b600067ffffffffffffffff8211156106e7576106e6610570565b5b6106f08261055f565b9050602081019050919050565b600061071061070b846106cc565b6105d0565b90508281526020810184848401111561072c5761072b61055a565b5b61073784828561061c565b509392505050565b600082601f83011261075457610753610555565b5b81356107648482602086016106fd565b91505092915050565b600061078061077b8461069b565b6105d0565b905080838252602082019050602084028301858111156107a3576107a26106c7565b5b835b818110156107ea57803567ffffffffffffffff8111156107c8576107c7610555565b5b8086016107d5898261073f565b855260208501945050506020810190506107a5565b5050509392505050565b600082601f83011261080957610808610555565b5b813561081984826020860161076d565b91505092915050565b600067ffffffffffffffff82111561083d5761083c610570565b5b602082029050602081019050919050565b600061086161085c84610822565b6105d0565b90508083825260208201905060208402830185811115610884576108836106c7565b5b835b818110156108ad57806108998882610513565b845260208401935050602081019050610886565b5050509392505050565b600082601f8301126108cc576108cb610555565b5b81356108dc84826020860161084e565b91505092915050565b600080600080600060a08688031215610901576109006104f2565b5b600086013567ffffffffffffffff81111561091f5761091e6104f7565b5b61092b8882890161066d565b955050602086013567ffffffffffffffff81111561094c5761094b6104f7565b5b6109588882890161066d565b945050604086013567ffffffffffffffff811115610979576109786104f7565b5b610985888289016107f4565b935050606086013567ffffffffffffffff8111156109a6576109a56104f7565b5b6109b2888289016108b7565b92505060806109c388828901610513565b9150509295509295909350565b600082825260208201905092915050565b7f426f756e7479466163746f72793a206d7573742073656e64206d6f726520746860008201527f616e20302077656920746f2063726561746520626f756e747900000000000000602082015250565b6000610a3d6039836109d0565b9150610a48826109e1565b604082019050919050565b60006020820190508181036000830152610a6c81610a30565b9050919050565b600081519050919050565b60005b83811015610a9c578082015181840152602081019050610a81565b60008484015250505050565b6000610ab382610a73565b610abd81856109d0565b9350610acd818560208601610a7e565b610ad68161055f565b840191505092915050565b600081519050919050565b600082825260208201905092915050565b6000819050602082019050919050565b600081519050919050565b600082825260208201905092915050565b6000610b3482610b0d565b610b3e8185610b18565b9350610b4e818560208601610a7e565b610b578161055f565b840191505092915050565b6000610b6e8383610b29565b905092915050565b6000602082019050919050565b6000610b8e82610ae1565b610b988185610aec565b935083602082028501610baa85610afd565b8060005b85811015610be65784840389528151610bc78582610b62565b9450610bd283610b76565b925060208a01995050600181019050610bae565b50829750879550505050505092915050565b600081519050919050565b600082825260208201905092915050565b6000819050602082019050919050565b610c2d816104b4565b82525050565b6000610c3f8383610c24565b60208301905092915050565b6000602082019050919050565b6000610c6382610bf8565b610c6d8185610c03565b9350610c7883610c14565b8060005b83811015610ca9578151610c908882610c33565b9750610c9b83610c4b565b925050600181019050610c7c565b5085935050505092915050565b600060e082019050610ccb600083018a61048a565b8181036020830152610cdd8189610aa8565b90508181036040830152610cf18188610aa8565b90508181036060830152610d058187610b83565b90508181036080830152610d198186610c58565b9050610d2860a08301856104be565b610d3560c083018461048a565b98975050505050505050565b7f4e487b7100000000000000000000000000000000000000000000000000000000600052601160045260246000fd5b6000610d7b826104b4565b91507fffffffffffffffffffffffffffffffffffffffffffffffffffffffffffffffff8203610dad57610dac610d41565b5b600182019050919050565b7f455243313136373a20637265617465206661696c656400000000000000000000600082015250565b6000610dee6016836109d0565b9150610df982610db8565b602082019050919050565b60006020820190508181036000830152610e1d81610de1565b905091905056fea2646970667358221220ee2842a65b3b1a0eafefc79eb213dbff3cb4daceae4b6726791c7834f101538c64736f6c63430008110033608060405234801561001057600080fd5b5061431a806100206000396000f3fe6080604052600436106101ee5760003560e01c806372269b7d1161010d578063c953210a116100a0578063d9a7b98b1161006f578063d9a7b98b146106fc578063f0fdf83414610727578063f25fed4814610764578063f2fde38b146107a1578063f60c7d9d146107ca576101ee565b8063c953210a1461062e578063ce6e1c4e14610657578063cf77cea814610694578063cffe3ba0146106bf576101ee565b8063b2fa1c9e116100dc578063b2fa1c9e1461055e578063c32e370e14610589578063c404ede9146105c6578063c680f410146105f1576101ee565b806372269b7d146104a05780637284e416146104cb5780637f43be53146104f65780638da5cb5b14610533576101ee565b80632b7ac3f311610185578063436e627011610154578063436e6270146103e45780634f8dd50d1461040f57806357293e741461044c578063715018a614610489576101ee565b80632b7ac3f31461033a5780632c5f4d63146103655780632d4bdb511461038e5780632ee94541146103b9576101ee565b806317e81c29116101c157806317e81c29146102905780631b2ccc09146102bb5780631c525905146102e657806321f103a61461030f576101ee565b806304b4b8c5146101f357806306fdde031461021e5780630d1120091461024957806316bb7c4614610274575b600080fd5b3480156101ff57600080fd5b50610208610807565b60405161021591906120a4565b60405180910390f35b34801561022a57600080fd5b5061023361082d565b604051610240919061214f565b60405180910390f35b34801561025557600080fd5b5061025e6108bb565b60405161026b919061218d565b60405180910390f35b61028e6004803603810190610289919061259d565b6108c0565b005b34801561029c57600080fd5b506102a5610b33565b6040516102b291906126be565b60405180910390f35b3480156102c757600080fd5b506102d0610b39565b6040516102dd91906126be565b60405180910390f35b3480156102f257600080fd5b5061030d6004803603810190610308919061283b565b610b3f565b005b34801561031b57600080fd5b506103246110f1565b60405161033191906129b8565b60405180910390f35b34801561034657600080fd5b5061034f61117f565b60405161035c9190612a39565b60405180910390f35b34801561037157600080fd5b5061038c60048036038101906103879190612b06565b6111a5565b005b34801561039a57600080fd5b506103a3611552565b6040516103b091906126be565b60405180910390f35b3480156103c557600080fd5b506103ce611558565b6040516103db9190612b90565b60405180910390f35b3480156103f057600080fd5b506103f961157e565b604051610406919061218d565b60405180910390f35b34801561041b57600080fd5b5061043660048036038101906104319190612bab565b611583565b60405161044391906126be565b60405180910390f35b34801561045857600080fd5b50610473600480360381019061046e9190612bab565b61159e565b60405161048091906129b8565b60405180910390f35b34801561049557600080fd5b5061049e61164a565b005b3480156104ac57600080fd5b506104b561165e565b6040516104c291906129b8565b60405180910390f35b3480156104d757600080fd5b506104e06116ec565b6040516104ed919061214f565b60405180910390f35b34801561050257600080fd5b5061051d60048036038101906105189190612bd8565b61177a565b60405161052a9190612c31565b60405180910390f35b34801561053f57600080fd5b50610548611797565b60405161055591906120a4565b60405180910390f35b34801561056a57600080fd5b506105736117c1565b6040516105809190612c67565b60405180910390f35b34801561059557600080fd5b506105b060048036038101906105ab9190612c82565b6117d4565b6040516105bd9190612c67565b60405180910390f35b3480156105d257600080fd5b506105db611882565b6040516105e891906129b8565b60405180910390f35b3480156105fd57600080fd5b5061061860048036038101906106139190612bab565b611910565b60405161062591906126be565b60405180910390f35b34801561063a57600080fd5b5061065560048036038101906106509190612d07565b61192b565b005b34801561066357600080fd5b5061067e60048036038101906106799190612bab565b611a4c565b60405161068b91906126be565b60405180910390f35b3480156106a057600080fd5b506106a9611a68565b6040516106b6919061218d565b60405180910390f35b3480156106cb57600080fd5b506106e660048036038101906106e19190612bd8565b611a6d565b6040516106f391906126be565b60405180910390f35b34801561070857600080fd5b50610711611a9b565b60405161071e919061218d565b60405180910390f35b34801561073357600080fd5b5061074e60048036038101906107499190612bab565b611aa0565b60405161075b91906126be565b60405180910390f35b34801561077057600080fd5b5061078b60048036038101906107869190612bab565b611abb565b60405161079891906126be565b60405180910390f35b3480156107ad57600080fd5b506107c860048036038101906107c39190612d34565b611adf565b005b3480156107d657600080fd5b506107f160048036038101906107ec9190612b06565b611b62565b6040516107fe9190612c67565b60405180910390f35b606c60009054906101000a900473ffffffffffffffffffffffffffffffffffffffff1681565b6067805461083a90612d90565b80601f016020809104026020016040519081016040528092919081815260200182805461086690612d90565b80156108b35780601f10610888576101008083540402835291602001916108b3565b820191906000526020600020905b81548152906001019060200180831161089657829003601f168201915b505050505081565b601281565b60008060019054906101000a900460ff161590508080156108f15750600160008054906101000a900460ff1660ff16105b8061091e575061090030611c10565b15801561091d5750600160008054906101000a900460ff1660ff16145b5b61095d576040517f08c379a000000000000000000000000000000000000000000000000000000000815260040161095490612e33565b60405180910390fd5b60016000806101000a81548160ff021916908360ff160217905550801561099a576001600060016101000a81548160ff0219169083151502179055505b600034116109dd576040517f08c379a00000000000000000000000000000000000000000000000000000000081526004016109d490612ec5565b60405180910390fd5b8351855114610a21576040517f08c379a0000000000000000000000000000000000000000000000000000000008152600401610a1890612f57565b60405180910390fd5b610a29611c33565b610a3288611adf565b8660679081610a419190613119565b508560689081610a519190613119565b508460699080519060200190610a68929190611e39565b5083606a9080519060200190610a7f929190611e92565b5082606b8190555081606660006101000a81548173ffffffffffffffffffffffffffffffffffffffff021916908373ffffffffffffffffffffffffffffffffffffffff16021790555060016065819055508015610b295760008060016101000a81548160ff0219169083151502179055507f7f26b83ff96e1f2b6a682f133852f6798a09c465da95921460cefb38474024986001604051610b209190613226565b60405180910390a15b5050505050505050565b606b5481565b60795481565b600073ffffffffffffffffffffffffffffffffffffffff16606c60009054906101000a900473ffffffffffffffffffffffffffffffffffffffff1673ffffffffffffffffffffffffffffffffffffffff1614610bd0576040517f08c379a0000000000000000000000000000000000000000000000000000000008152600401610bc79061328d565b60405180910390fd5b600073ffffffffffffffffffffffffffffffffffffffff168573ffffffffffffffffffffffffffffffffffffffff1603610c3f576040517f08c379a0000000000000000000000000000000000000000000000000000000008152600401610c36906132f9565b60405180910390fd5b600060698054905090506001816003610c589190613348565b610c62919061338a565b825114610ca4576040517f08c379a0000000000000000000000000000000000000000000000000000000008152600401610c9b9061340a565b60405180910390fd5b6000805b82811015610d1157606a8181548110610cc457610cc361342a565b5b9060005260206000200154848281518110610ce257610ce161342a565b5b602002602001015103610cfe578180610cfa90613459565b9250505b8080610d0990613459565b915050610ca8565b50606b5482606483610d239190613348565b610d2d91906134d0565b1015610d6e576040517f08c379a0000000000000000000000000000000000000000000000000000000008152600401610d659061354d565b60405180910390fd5b60005b606980549050811015610eae576001605560126020610dfe88600287610d979190613348565b89610da2919061338a565b81518110610db357610db261342a565b5b6020026020010151896001600289610dcb9190613348565b8b610dd6919061338a565b610de0919061338a565b81518110610df157610df061342a565b5b602002602001015161177a565b604051602001610e129594939291906135c4565b6040516020818303038152906040528051906020012060698281548110610e3c57610e3b61342a565b5b90600052602060002001604051610e5391906136c6565b604051809103902014610e9b576040517f08c379a0000000000000000000000000000000000000000000000000000000008152600401610e9290613729565b60405180910390fd5b8080610ea690613459565b915050610d71565b5086607060006101000a81548173ffffffffffffffffffffffffffffffffffffffff021916908373ffffffffffffffffffffffffffffffffffffffff160217905550607060009054906101000a900473ffffffffffffffffffffffffffffffffffffffff1673ffffffffffffffffffffffffffffffffffffffff1663c32e370e878787876040518563ffffffff1660e01b8152600401610f519493929190613989565b602060405180830381865afa158015610f6e573d6000803e3d6000fd5b505050506040513d601f19601f82011682018060405250810190610f929190613a03565b610fd1576040517f08c379a0000000000000000000000000000000000000000000000000000000008152600401610fc890613a7c565b60405180910390fd5b856071906002610fe2929190611edf565b50846073906002610ff4929190611f1f565b50836077906002611006929190611edf565b50828260036110159190613348565b815181106110265761102561342a565b5b602002602001015160798190555089606d90816110439190613ae2565b5088606e90816110539190613ae2565b5087606f90816110639190613ae2565b5033606c60006101000a81548173ffffffffffffffffffffffffffffffffffffffff021916908373ffffffffffffffffffffffffffffffffffffffff1602179055507f16bad55f7ea4a80796c6f907e775cc23057b180a4bfbc4a3e25ea0d06fd37a6860026040516110d59190613bef565b60405180910390a1600260658190555050505050505050505050565b606d80546110fe90612d90565b80601f016020809104026020016040519081016040528092919081815260200182805461112a90612d90565b80156111775780601f1061114c57610100808354040283529160200191611177565b820191906000526020600020905b81548152906001019060200180831161115a57829003601f168201915b505050505081565b607060009054906101000a900473ffffffffffffffffffffffffffffffffffffffff1681565b606c60009054906101000a900473ffffffffffffffffffffffffffffffffffffffff1673ffffffffffffffffffffffffffffffffffffffff163373ffffffffffffffffffffffffffffffffffffffff1614611235576040517f08c379a000000000000000000000000000000000000000000000000000000000815260040161122c90613c7c565b60405180910390fd5b607a60009054906101000a900460ff16611284576040517f08c379a000000000000000000000000000000000000000000000000000000000815260040161127b90613ce8565b60405180910390fd5b600047116112c7576040517f08c379a00000000000000000000000000000000000000000000000000000000081526004016112be90613d54565b60405180910390fd5b8060006103ed81106112dc576112db61342a565b5b602002015160795414611324576040517f08c379a000000000000000000000000000000000000000000000000000000000815260040161131b90613de6565b60405180910390fd5b806103eb6103ed811061133a5761133961342a565b5b6020020151607b6000600281106113545761135361342a565b5b01541480156113925750806103ec6103ed81106113745761137361342a565b5b6020020151607b60016002811061138e5761138d61342a565b5b0154145b6113d1576040517f08c379a00000000000000000000000000000000000000000000000000000000081526004016113c890613e52565b60405180910390fd5b606660009054906101000a900473ffffffffffffffffffffffffffffffffffffffff1673ffffffffffffffffffffffffffffffffffffffff1663a3042857858585856040518563ffffffff1660e01b81526004016114329493929190613ef7565b602060405180830381865afa15801561144f573d6000803e3d6000fd5b505050506040513d601f19601f820116820180604052508101906114739190613a03565b6114b2576040517f08c379a00000000000000000000000000000000000000000000000000000000081526004016114a990613f8a565b60405180910390fd5b80607d906103ed6114c4929190611f6f565b503373ffffffffffffffffffffffffffffffffffffffff166108fc479081150290604051600060405180830381858888f1935050505015801561150b573d6000803e3d6000fd5b507f16bad55f7ea4a80796c6f907e775cc23057b180a4bfbc4a3e25ea0d06fd37a68600460405161153c9190613fe5565b60405180910390a1600460658190555050505050565b60655481565b606660009054906101000a900473ffffffffffffffffffffffffffffffffffffffff1681565b602081565b6077816002811061159357600080fd5b016000915090505481565b606981815481106115ae57600080fd5b9060005260206000200160009150905080546115c990612d90565b80601f01602080910402602001604051908101604052809291908181526020018280546115f590612d90565b80156116425780601f1061161757610100808354040283529160200191611642565b820191906000526020600020905b81548152906001019060200180831161162557829003601f168201915b505050505081565b611652611c8c565b61165c6000611d0a565b565b606f805461166b90612d90565b80601f016020809104026020016040519081016040528092919081815260200182805461169790612d90565b80156116e45780601f106116b9576101008083540402835291602001916116e4565b820191906000526020600020905b8154815290600101906020018083116116c757829003601f168201915b505050505081565b606880546116f990612d90565b80601f016020809104026020016040519081016040528092919081815260200182805461172590612d90565b80156117725780601f1061174757610100808354040283529160200191611772565b820191906000526020600020905b81548152906001019060200180831161175557829003601f168201915b505050505081565b600081608084901b61178c919061338a565b60001b905092915050565b6000603360009054906101000a900473ffffffffffffffffffffffffffffffffffffffff16905090565b607a60009054906101000a900460ff1681565b6000607060009054906101000a900473ffffffffffffffffffffffffffffffffffffffff1673ffffffffffffffffffffffffffffffffffffffff1663c32e370e868686866040518563ffffffff1660e01b81526004016118379493929190613989565b602060405180830381865afa158015611854573d6000803e3d6000fd5b505050506040513d601f19601f820116820180604052508101906118789190613a03565b9050949350505050565b606e805461188f90612d90565b80601f01602080910402602001604051908101604052809291908181526020018280546118bb90612d90565b80156119085780601f106118dd57610100808354040283529160200191611908565b820191906000526020600020905b8154815290600101906020018083116118eb57829003601f168201915b505050505081565b607b816002811061192057600080fd5b016000915090505481565b611933611c8c565b607a60009054906101000a900460ff1615611983576040517f08c379a000000000000000000000000000000000000000000000000000000000815260040161197a9061404c565b60405180910390fd5b6000607160006002811061199a5761199961342a565b5b0154036119dc576040517f08c379a00000000000000000000000000000000000000000000000000000000081526004016119d3906140de565b60405180910390fd5b80607b9060026119ed929190611edf565b506001607a60006101000a81548160ff0219169083151502179055507f16bad55f7ea4a80796c6f907e775cc23057b180a4bfbc4a3e25ea0d06fd37a686003604051611a399190614139565b60405180910390a1600360658190555050565b607d816103ed8110611a5d57600080fd5b016000915090505481565b600181565b60738260028110611a7d57600080fd5b600202018160028110611a8f57600080fd5b01600091509150505481565b605581565b60718160028110611ab057600080fd5b016000915090505481565b606a8181548110611acb57600080fd5b906000526020600020016000915090505481565b611ae7611c8c565b600073ffffffffffffffffffffffffffffffffffffffff168173ffffffffffffffffffffffffffffffffffffffff1603611b56576040517f08c379a0000000000000000000000000000000000000000000000000000000008152600401611b4d906141c6565b60405180910390fd5b611b5f81611d0a565b50565b6000606660009054906101000a900473ffffffffffffffffffffffffffffffffffffffff1673ffffffffffffffffffffffffffffffffffffffff1663a3042857868686866040518563ffffffff1660e01b8152600401611bc59493929190613ef7565b602060405180830381865afa158015611be2573d6000803e3d6000fd5b505050506040513d601f19601f82011682018060405250810190611c069190613a03565b9050949350505050565b6000808273ffffffffffffffffffffffffffffffffffffffff163b119050919050565b600060019054906101000a900460ff16611c82576040517f08c379a0000000000000000000000000000000000000000000000000000000008152600401611c7990614258565b60405180910390fd5b611c8a611dd0565b565b611c94611e31565b73ffffffffffffffffffffffffffffffffffffffff16611cb2611797565b73ffffffffffffffffffffffffffffffffffffffff1614611d08576040517f08c379a0000000000000000000000000000000000000000000000000000000008152600401611cff906142c4565b60405180910390fd5b565b6000603360009054906101000a900473ffffffffffffffffffffffffffffffffffffffff16905081603360006101000a81548173ffffffffffffffffffffffffffffffffffffffff021916908373ffffffffffffffffffffffffffffffffffffffff1602179055508173ffffffffffffffffffffffffffffffffffffffff168173ffffffffffffffffffffffffffffffffffffffff167f8be0079c531659141344cd1fd0a4f28419497f9722a3daafe3b4186f6b6457e060405160405180910390a35050565b600060019054906101000a900460ff16611e1f576040517f08c379a0000000000000000000000000000000000000000000000000000000008152600401611e1690614258565b60405180910390fd5b611e2f611e2a611e31565b611d0a565b565b600033905090565b828054828255906000526020600020908101928215611e81579160200282015b82811115611e80578251829081611e709190613ae2565b5091602001919060010190611e59565b5b509050611e8e9190611fb0565b5090565b828054828255906000526020600020908101928215611ece579160200282015b82811115611ecd578251825591602001919060010190611eb2565b5b509050611edb9190611fd4565b5090565b8260028101928215611f0e579160200282015b82811115611f0d578251825591602001919060010190611ef2565b5b509050611f1b9190611fd4565b5090565b82600280028101928215611f5e579160200282015b82811115611f5d57825182906002611f4d929190611edf565b5091602001919060020190611f34565b5b509050611f6b9190611ff1565b5090565b826103ed8101928215611f9f579160200282015b82811115611f9e578251825591602001919060010190611f83565b5b509050611fac9190611fd4565b5090565b5b80821115611fd05760008181611fc79190612015565b50600101611fb1565b5090565b5b80821115611fed576000816000905550600101611fd5565b5090565b5b8082111561201157600081816120089190612055565b50600201611ff2565b5090565b50805461202190612d90565b6000825580601f106120335750612052565b601f0160209004906000526020600020908101906120519190611fd4565b5b50565b506000815560010160009055565b600073ffffffffffffffffffffffffffffffffffffffff82169050919050565b600061208e82612063565b9050919050565b61209e81612083565b82525050565b60006020820190506120b96000830184612095565b92915050565b600081519050919050565b600082825260208201905092915050565b60005b838110156120f95780820151818401526020810190506120de565b60008484015250505050565b6000601f19601f8301169050919050565b6000612121826120bf565b61212b81856120ca565b935061213b8185602086016120db565b61214481612105565b840191505092915050565b600060208201905081810360008301526121698184612116565b905092915050565b600060ff82169050919050565b61218781612171565b82525050565b60006020820190506121a2600083018461217e565b92915050565b6000604051905090565b600080fd5b600080fd5b6121c581612083565b81146121d057600080fd5b50565b6000813590506121e2816121bc565b92915050565b600080fd5b600080fd5b7f4e487b7100000000000000000000000000000000000000000000000000000000600052604160045260246000fd5b61222a82612105565b810181811067ffffffffffffffff82111715612249576122486121f2565b5b80604052505050565b600061225c6121a8565b90506122688282612221565b919050565b600067ffffffffffffffff821115612288576122876121f2565b5b61229182612105565b9050602081019050919050565b82818337600083830152505050565b60006122c06122bb8461226d565b612252565b9050828152602081018484840111156122dc576122db6121ed565b5b6122e784828561229e565b509392505050565b600082601f830112612304576123036121e8565b5b81356123148482602086016122ad565b91505092915050565b600067ffffffffffffffff821115612338576123376121f2565b5b602082029050602081019050919050565b600080fd5b600067ffffffffffffffff821115612369576123686121f2565b5b61237282612105565b9050602081019050919050565b600061239261238d8461234e565b612252565b9050828152602081018484840111156123ae576123ad6121ed565b5b6123b984828561229e565b509392505050565b600082601f8301126123d6576123d56121e8565b5b81356123e684826020860161237f565b91505092915050565b60006124026123fd8461231d565b612252565b9050808382526020820190506020840283018581111561242557612424612349565b5b835b8181101561246c57803567ffffffffffffffff81111561244a576124496121e8565b5b80860161245789826123c1565b85526020850194505050602081019050612427565b5050509392505050565b600082601f83011261248b5761248a6121e8565b5b813561249b8482602086016123ef565b91505092915050565b600067ffffffffffffffff8211156124bf576124be6121f2565b5b602082029050602081019050919050565b6000819050919050565b6124e3816124d0565b81146124ee57600080fd5b50565b600081359050612500816124da565b92915050565b6000612519612514846124a4565b612252565b9050808382526020820190506020840283018581111561253c5761253b612349565b5b835b81811015612565578061255188826124f1565b84526020840193505060208101905061253e565b5050509392505050565b600082601f830112612584576125836121e8565b5b8135612594848260208601612506565b91505092915050565b600080600080600080600060e0888a0312156125bc576125bb6121b2565b5b60006125ca8a828b016121d3565b975050602088013567ffffffffffffffff8111156125eb576125ea6121b7565b5b6125f78a828b016122ef565b965050604088013567ffffffffffffffff811115612618576126176121b7565b5b6126248a828b016122ef565b955050606088013567ffffffffffffffff811115612645576126446121b7565b5b6126518a828b01612476565b945050608088013567ffffffffffffffff811115612672576126716121b7565b5b61267e8a828b0161256f565b93505060a061268f8a828b016124f1565b92505060c06126a08a828b016121d3565b91505092959891949750929550565b6126b8816124d0565b82525050565b60006020820190506126d360008301846126af565b92915050565b600067ffffffffffffffff8211156126f4576126f36121f2565b5b602082029050919050565b600061271261270d846126d9565b612252565b9050806020840283018581111561272c5761272b612349565b5b835b81811015612755578061274188826124f1565b84526020840193505060208101905061272e565b5050509392505050565b600082601f830112612774576127736121e8565b5b60026127818482856126ff565b91505092915050565b600067ffffffffffffffff8211156127a5576127a46121f2565b5b602082029050919050565b60006127c36127be8461278a565b612252565b905080604084028301858111156127dd576127dc612349565b5b835b8181101561280657806127f2888261275f565b8452602084019350506040810190506127df565b5050509392505050565b600082601f830112612825576128246121e8565b5b60026128328482856127b0565b91505092915050565b6000806000806000806000806101a0898b03121561285c5761285b6121b2565b5b600089013567ffffffffffffffff81111561287a576128796121b7565b5b6128868b828c016123c1565b985050602089013567ffffffffffffffff8111156128a7576128a66121b7565b5b6128b38b828c016123c1565b975050604089013567ffffffffffffffff8111156128d4576128d36121b7565b5b6128e08b828c016123c1565b96505060606128f18b828c016121d3565b95505060806129028b828c0161275f565b94505060c06129138b828c01612810565b9350506101406129258b828c0161275f565b92505061018089013567ffffffffffffffff811115612947576129466121b7565b5b6129538b828c0161256f565b9150509295985092959890939650565b600081519050919050565b600082825260208201905092915050565b600061298a82612963565b612994818561296e565b93506129a48185602086016120db565b6129ad81612105565b840191505092915050565b600060208201905081810360008301526129d2818461297f565b905092915050565b6000819050919050565b60006129ff6129fa6129f584612063565b6129da565b612063565b9050919050565b6000612a11826129e4565b9050919050565b6000612a2382612a06565b9050919050565b612a3381612a18565b82525050565b6000602082019050612a4e6000830184612a2a565b92915050565b600067ffffffffffffffff821115612a6f57612a6e6121f2565b5b602082029050919050565b6000612a8d612a8884612a54565b612252565b90508060208402830185811115612aa757612aa6612349565b5b835b81811015612ad05780612abc88826124f1565b845260208401935050602081019050612aa9565b5050509392505050565b600082601f830112612aef57612aee6121e8565b5b6103ed612afd848285612a7a565b91505092915050565b600080600080617ea08587031215612b2157612b206121b2565b5b6000612b2f8782880161275f565b9450506040612b4087828801612810565b93505060c0612b518782880161275f565b925050610100612b6387828801612ada565b91505092959194509250565b6000612b7a82612a06565b9050919050565b612b8a81612b6f565b82525050565b6000602082019050612ba56000830184612b81565b92915050565b600060208284031215612bc157612bc06121b2565b5b6000612bcf848285016124f1565b91505092915050565b60008060408385031215612bef57612bee6121b2565b5b6000612bfd858286016124f1565b9250506020612c0e858286016124f1565b9150509250929050565b6000819050919050565b612c2b81612c18565b82525050565b6000602082019050612c466000830184612c22565b92915050565b60008115159050919050565b612c6181612c4c565b82525050565b6000602082019050612c7c6000830184612c58565b92915050565b6000806000806101208587031215612c9d57612c9c6121b2565b5b6000612cab8782880161275f565b9450506040612cbc87828801612810565b93505060c0612ccd8782880161275f565b92505061010085013567ffffffffffffffff811115612cef57612cee6121b7565b5b612cfb8782880161256f565b91505092959194509250565b600060408284031215612d1d57612d1c6121b2565b5b6000612d2b8482850161275f565b91505092915050565b600060208284031215612d4a57612d496121b2565b5b6000612d58848285016121d3565b91505092915050565b7f4e487b7100000000000000000000000000000000000000000000000000000000600052602260045260246000fd5b60006002820490506001821680612da857607f821691505b602082108103612dbb57612dba612d61565b5b50919050565b7f496e697469616c697a61626c653a20636f6e747261637420697320616c72656160008201527f647920696e697469616c697a6564000000000000000000000000000000000000602082015250565b6000612e1d602e836120ca565b9150612e2882612dc1565b604082019050919050565b60006020820190508181036000830152612e4c81612e10565b9050919050565b7f426f756e747920726577617264206d757374206265206772656174657220746860008201527f616e203000000000000000000000000000000000000000000000000000000000602082015250565b6000612eaf6024836120ca565b9150612eba82612e53565b604082019050919050565b60006020820190508181036000830152612ede81612ea2565b9050919050565b7f496e76616c6964206461746143494473206f72206c6162656c73206c656e677460008201527f6800000000000000000000000000000000000000000000000000000000000000602082015250565b6000612f416021836120ca565b9150612f4c82612ee5565b604082019050919050565b60006020820190508181036000830152612f7081612f34565b9050919050565b60008190508160005260206000209050919050565b60006020601f8301049050919050565b600082821b905092915050565b600060088302612fd97fffffffffffffffffffffffffffffffffffffffffffffffffffffffffffffffff82612f9c565b612fe38683612f9c565b95508019841693508086168417925050509392505050565b600061301661301161300c846124d0565b6129da565b6124d0565b9050919050565b6000819050919050565b61303083612ffb565b61304461303c8261301d565b848454612fa9565b825550505050565b600090565b61305961304c565b613064818484613027565b505050565b5b818110156130885761307d600082613051565b60018101905061306a565b5050565b601f8211156130cd5761309e81612f77565b6130a784612f8c565b810160208510156130b6578190505b6130ca6130c285612f8c565b830182613069565b50505b505050565b600082821c905092915050565b60006130f0600019846008026130d2565b1980831691505092915050565b600061310983836130df565b9150826002028217905092915050565b613122826120bf565b67ffffffffffffffff81111561313b5761313a6121f2565b5b6131458254612d90565b61315082828561308c565b600060209050601f8311600181146131835760008415613171578287015190505b61317b85826130fd565b8655506131e3565b601f19841661319186612f77565b60005b828110156131b957848901518255600182019150602085019450602081019050613194565b868310156131d657848901516131d2601f8916826130df565b8355505b6001600288020188555050505b505050505050565b6000819050919050565b600061321061320b613206846131eb565b6129da565b612171565b9050919050565b613220816131f5565b82525050565b600060208201905061323b6000830184613217565b92915050565b7f426f756e747920616c7265616479207375626d69747465640000000000000000600082015250565b60006132776018836120ca565b915061328282613241565b602082019050919050565b600060208201905081810360008301526132a68161326a565b9050919050565b7f496e76616c696420766572696669657220616464726573730000000000000000600082015250565b60006132e36018836120ca565b91506132ee826132ad565b602082019050919050565b60006020820190508181036000830152613312816132d6565b9050919050565b7f4e487b7100000000000000000000000000000000000000000000000000000000600052601160045260246000fd5b6000613353826124d0565b915061335e836124d0565b925082820261336c816124d0565b9150828204841483151761338357613382613319565b5b5092915050565b6000613395826124d0565b91506133a0836124d0565b92508282019050808211156133b8576133b7613319565b5b92915050565b7f496e76616c696420696e707574206c656e677468000000000000000000000000600082015250565b60006133f46014836120ca565b91506133ff826133be565b602082019050919050565b60006020820190508181036000830152613423816133e7565b9050919050565b7f4e487b7100000000000000000000000000000000000000000000000000000000600052603260045260246000fd5b6000613464826124d0565b91507fffffffffffffffffffffffffffffffffffffffffffffffffffffffffffffffff820361349657613495613319565b5b600182019050919050565b7f4e487b7100000000000000000000000000000000000000000000000000000000600052601260045260246000fd5b60006134db826124d0565b91506134e6836124d0565b9250826134f6576134f56134a1565b5b828204905092915050565b7f4163637572616379207468726573686f6c64206e6f74206d6574000000000000600082015250565b6000613537601a836120ca565b915061354282613501565b602082019050919050565b600060208201905081810360008301526135668161352a565b9050919050565b60008160f81b9050919050565b60006135858261356d565b9050919050565b61359d61359882612171565b61357a565b82525050565b6000819050919050565b6135be6135b982612c18565b6135a3565b82525050565b60006135d0828861358c565b6001820191506135e0828761358c565b6001820191506135f0828661358c565b600182019150613600828561358c565b60018201915061361082846135ad565b6020820191508190509695505050505050565b600081905092915050565b60008190508160005260206000209050919050565b6000815461365081612d90565b61365a8186613623565b94506001821660008114613675576001811461368a576136bd565b60ff19831686528115158202860193506136bd565b6136938561362e565b60005b838110156136b557815481890152600182019150602081019050613696565b838801955050505b50505092915050565b60006136d28284613643565b915081905092915050565b7f4461746120434944206d69736d61746368000000000000000000000000000000600082015250565b60006137136011836120ca565b915061371e826136dd565b602082019050919050565b6000602082019050818103600083015261374281613706565b9050919050565b600060029050919050565b600081905092915050565b6000819050919050565b613772816124d0565b82525050565b60006137848383613769565b60208301905092915050565b6000602082019050919050565b6137a681613749565b6137b08184613754565b92506137bb8261375f565b8060005b838110156137ec5781516137d38782613778565b96506137de83613790565b9250506001810190506137bf565b505050505050565b600060029050919050565b600081905092915050565b6000819050919050565b600081905092915050565b61382881613749565b6138328184613814565b925061383d8261375f565b8060005b8381101561386e5781516138558782613778565b965061386083613790565b925050600181019050613841565b505050505050565b6000613882838361381f565b60408301905092915050565b6000602082019050919050565b6138a4816137f4565b6138ae81846137ff565b92506138b98261380a565b8060005b838110156138ea5781516138d18782613876565b96506138dc8361388e565b9250506001810190506138bd565b505050505050565b600081519050919050565b600082825260208201905092915050565b6000819050602082019050919050565b6000602082019050919050565b6000613936826138f2565b61394081856138fd565b935061394b8361390e565b8060005b8381101561397c5781516139638882613778565b975061396e8361391e565b92505060018101905061394f565b5085935050505092915050565b60006101208201905061399f600083018761379d565b6139ac604083018661389b565b6139b960c083018561379d565b8181036101008301526139cc818461392b565b905095945050505050565b6139e081612c4c565b81146139eb57600080fd5b50565b6000815190506139fd816139d7565b92915050565b600060208284031215613a1957613a186121b2565b5b6000613a27848285016139ee565b91505092915050565b7f496e76616c69642070726f6f6600000000000000000000000000000000000000600082015250565b6000613a66600d836120ca565b9150613a7182613a30565b602082019050919050565b60006020820190508181036000830152613a9581613a59565b9050919050565b601f821115613add57613aae8161362e565b613ab784612f8c565b81016020851015613ac6578190505b613ada613ad285612f8c565b830182613069565b50505b505050565b613aeb82612963565b67ffffffffffffffff811115613b0457613b036121f2565b5b613b0e8254612d90565b613b19828285613a9c565b600060209050601f831160018114613b4c5760008415613b3a578287015190505b613b4485826130fd565b865550613bac565b601f198416613b5a8661362e565b60005b82811015613b8257848901518255600182019150602085019450602081019050613b5d565b86831015613b9f5784890151613b9b601f8916826130df565b8355505b6001600288020188555050505b505050505050565b6000819050919050565b6000613bd9613bd4613bcf84613bb4565b6129da565b6124d0565b9050919050565b613be981613bbe565b82525050565b6000602082019050613c046000830184613be0565b92915050565b7f4f6e6c7920626f756e74792068756e7465722063616e20636c61696d20626f7560008201527f6e74790000000000000000000000000000000000000000000000000000000000602082015250565b6000613c666023836120ca565b9150613c7182613c0a565b604082019050919050565b60006020820190508181036000830152613c9581613c59565b9050919050565b7f426f756e7479206973206e6f7420636f6d706c65746500000000000000000000600082015250565b6000613cd26016836120ca565b9150613cdd82613c9c565b602082019050919050565b60006020820190508181036000830152613d0181613cc5565b9050919050565b7f426f756e747920616c726561647920636c61696d656400000000000000000000600082015250565b6000613d3e6016836120ca565b9150613d4982613d08565b602082019050919050565b60006020820190508181036000830152613d6d81613d31565b9050919050565b7f4d6f64656c206861736820646f6573206e6f74206d61746368207375626d697460008201527f7465642070726f6f660000000000000000000000000000000000000000000000602082015250565b6000613dd06029836120ca565b9150613ddb82613d74565b604082019050919050565b60006020820190508181036000830152613dff81613dc3565b9050919050565b7f5075626c6963206b65797320646f206e6f74206d617463680000000000000000600082015250565b6000613e3c6018836120ca565b9150613e4782613e06565b602082019050919050565b60006020820190508181036000830152613e6b81613e2f565b9050919050565b60006103ed9050919050565b600081905092915050565b6000819050919050565b6000602082019050919050565b613ea981613e72565b613eb38184613e7e565b9250613ebe82613e89565b8060005b83811015613eef578151613ed68782613778565b9650613ee183613e93565b925050600181019050613ec2565b505050505050565b6000617ea082019050613f0d600083018761379d565b613f1a604083018661389b565b613f2760c083018561379d565b613f35610100830184613ea0565b95945050505050565b7f496e76616c696420656e6372797074696f6e0000000000000000000000000000600082015250565b6000613f746012836120ca565b9150613f7f82613f3e565b602082019050919050565b60006020820190508181036000830152613fa381613f67565b9050919050565b6000819050919050565b6000613fcf613fca613fc584613faa565b6129da565b6124d0565b9050919050565b613fdf81613fb4565b82525050565b6000602082019050613ffa6000830184613fd6565b92915050565b7f426f756e747920697320616c726561647920636f6d706c657465000000000000600082015250565b6000614036601a836120ca565b915061404182614000565b602082019050919050565b6000602082019050818103600083015261406581614029565b9050919050565b7f426f756e74792068756e74657220686173206e6f74207375626d69747465642060008201527f70726f6f66000000000000000000000000000000000000000000000000000000602082015250565b60006140c86025836120ca565b91506140d38261406c565b604082019050919050565b600060208201905081810360008301526140f7816140bb565b9050919050565b6000819050919050565b600061412361411e614119846140fe565b6129da565b6124d0565b9050919050565b61413381614108565b82525050565b600060208201905061414e600083018461412a565b92915050565b7f4f776e61626c653a206e6577206f776e657220697320746865207a65726f206160008201527f6464726573730000000000000000000000000000000000000000000000000000602082015250565b60006141b06026836120ca565b91506141bb82614154565b604082019050919050565b600060208201905081810360008301526141df816141a3565b9050919050565b7f496e697469616c697a61626c653a20636f6e7472616374206973206e6f74206960008201527f6e697469616c697a696e67000000000000000000000000000000000000000000602082015250565b6000614242602b836120ca565b915061424d826141e6565b604082019050919050565b6000602082019050818103600083015261427181614235565b9050919050565b7f4f776e61626c653a2063616c6c6572206973206e6f7420746865206f776e6572600082015250565b60006142ae6020836120ca565b91506142b982614278565b602082019050919050565b600060208201905081810360008301526142dd816142a1565b905091905056fea26469706673582212202f2d2e94b9b8ddb1bd1e8092c6c65edde7768d2a03bea0ef17533af7aa7ea38764736f6c63430008110033",
  "devdoc": {
    "kind": "dev",
    "methods": {},
    "version": 1
  },
  "userdoc": {
    "kind": "user",
    "methods": {},
    "version": 1
  },
  "storageLayout": {
    "storage": [
      {
        "astId": 1326,
        "contract": "contracts/BountyFactory.sol:BountyFactory",
        "label": "bounties",
        "offset": 0,
        "slot": "0",
        "type": "t_array(t_address)dyn_storage"
      },
      {
        "astId": 1328,
        "contract": "contracts/BountyFactory.sol:BountyFactory",
        "label": "bountyCount",
        "offset": 0,
        "slot": "1",
        "type": "t_uint256"
      }
    ],
    "types": {
      "t_address": {
        "encoding": "inplace",
        "label": "address",
        "numberOfBytes": "20"
      },
      "t_array(t_address)dyn_storage": {
        "base": "t_address",
        "encoding": "dynamic_array",
        "label": "address[]",
        "numberOfBytes": "32"
      },
      "t_uint256": {
        "encoding": "inplace",
        "label": "uint256",
        "numberOfBytes": "32"
      }
    }
  }
}