{
  "address": "0xe7f1725E7734CE288F8367e1Bb143E90bb3F0512",
  "abi": [
    {
      "inputs": [
        {
          "internalType": "address",
          "name": "_encryptionVerifier",
          "type": "address"
        }
      ],
      "stateMutability": "nonpayable",
      "type": "constructor"
    },
    {
      "anonymous": false,
      "inputs": [
        {
          "indexed": true,
          "internalType": "address",
          "name": "bounty",
          "type": "address"
        }
      ],
      "name": "BountyCreated",
      "type": "event"
    },
    {
      "inputs": [
        {
          "internalType": "uint256",
          "name": "",
          "type": "uint256"
        }
      ],
      "name": "bounties",
      "outputs": [
        {
          "internalType": "address",
          "name": "",
          "type": "address"
        }
      ],
      "stateMutability": "view",
      "type": "function"
    },
    {
      "inputs": [],
      "name": "bountyCount",
      "outputs": [
        {
          "internalType": "uint256",
          "name": "",
          "type": "uint256"
        }
      ],
      "stateMutability": "view",
      "type": "function"
    },
    {
      "inputs": [],
      "name": "bountyTemplate",
      "outputs": [
        {
          "internalType": "address",
          "name": "",
          "type": "address"
        }
      ],
      "stateMutability": "view",
      "type": "function"
    },
    {
      "inputs": [
        {
          "internalType": "string",
          "name": "_name",
          "type": "string"
        },
        {
          "internalType": "string",
          "name": "_description",
          "type": "string"
        },
        {
          "internalType": "bytes[]",
          "name": "_dataCIDs",
          "type": "bytes[]"
        },
        {
          "internalType": "uint256[]",
          "name": "_labels",
          "type": "uint256[]"
        },
        {
          "internalType": "uint256",
          "name": "_accuracyThreshold",
          "type": "uint256"
        }
      ],
      "name": "createBounty",
      "outputs": [
        {
          "internalType": "address",
          "name": "",
          "type": "address"
        }
      ],
      "stateMutability": "payable",
      "type": "function"
    },
    {
      "inputs": [],
      "name": "encryptionVerifier",
      "outputs": [
        {
          "internalType": "address",
          "name": "",
          "type": "address"
        }
      ],
      "stateMutability": "view",
      "type": "function"
    }
  ],
  "transactionHash": "0x9f492727b8becd2ff72a03f510c04d2c38c7813be4fbc0582f9a4d8c30379031",
  "args": [
    "0x5FbDB2315678afecb367f032d93F642f64180aa3"
  ],
  "numDeployments": 1,
  "solcInputHash": "a55f538547c77f8070c105d3af22e493",
  "bytecode": "0x60c06040523480156200001157600080fd5b506040516200521d3803806200521d833981810160405281019062000037919062000149565b8073ffffffffffffffffffffffffffffffffffffffff1660808173ffffffffffffffffffffffffffffffffffffffff16815250506040516200007990620000d1565b604051809103906000f08015801562000096573d6000803e3d6000fd5b5073ffffffffffffffffffffffffffffffffffffffff1660a08173ffffffffffffffffffffffffffffffffffffffff1681525050506200017b565b614214806200100983390190565b600080fd5b600073ffffffffffffffffffffffffffffffffffffffff82169050919050565b60006200011182620000e4565b9050919050565b620001238162000104565b81146200012f57600080fd5b50565b600081519050620001438162000118565b92915050565b600060208284031215620001625762000161620000df565b5b6000620001728482850162000132565b91505092915050565b60805160a051610e5a620001af60003960008181610169015261021501526000818161013f01526102600152610e5a6000f3fe60806040526004361061004a5760003560e01c80632ee945411461004f5780633e362c961461007a57806347e66947146100a5578063dc2f8744146100d0578063e2b47c561461010d575b600080fd5b34801561005b57600080fd5b5061006461013d565b6040516100719190610499565b60405180910390f35b34801561008657600080fd5b5061008f610161565b60405161009c91906104cd565b60405180910390f35b3480156100b157600080fd5b506100ba610167565b6040516100c79190610499565b60405180910390f35b3480156100dc57600080fd5b506100f760048036038101906100f29190610528565b61018b565b6040516101049190610499565b60405180910390f35b610127600480360381019061012291906108e5565b6101ca565b6040516101349190610499565b60405180910390f35b7f000000000000000000000000000000000000000000000000000000000000000081565b60015481565b7f000000000000000000000000000000000000000000000000000000000000000081565b6000818154811061019b57600080fd5b906000526020600020016000915054906101000a900473ffffffffffffffffffffffffffffffffffffffff1681565b600080341161020e576040517f08c379a000000000000000000000000000000000000000000000000000000000815260040161020590610a53565b60405180910390fd5b60006102397f000000000000000000000000000000000000000000000000000000000000000061039e565b90508073ffffffffffffffffffffffffffffffffffffffff166316bb7c4634338a8a8a8a8a7f00000000000000000000000000000000000000000000000000000000000000006040518963ffffffff1660e01b81526004016102a19796959493929190610cb6565b6000604051808303818588803b1580156102ba57600080fd5b505af11580156102ce573d6000803e3d6000fd5b50505050506000819080600181540180825580915050600190039060005260206000200160009091909190916101000a81548173ffffffffffffffffffffffffffffffffffffffff021916908373ffffffffffffffffffffffffffffffffffffffff1602179055508073ffffffffffffffffffffffffffffffffffffffff167f296fd2c434595e170589ead76f71af701ab651dd12e03e8c108123ec7c809a7360405160405180910390a26001600081548092919061038c90610d70565b91905055508091505095945050505050565b6000763d602d80600a3d3981f3363d3d373d3d3d363d730000008260601b60e81c176000526e5af43d82803e903d91602b57fd5bf38260781b17602052603760096000f09050600073ffffffffffffffffffffffffffffffffffffffff168173ffffffffffffffffffffffffffffffffffffffff1603610453576040517f08c379a000000000000000000000000000000000000000000000000000000000815260040161044a90610e04565b60405180910390fd5b919050565b600073ffffffffffffffffffffffffffffffffffffffff82169050919050565b600061048382610458565b9050919050565b61049381610478565b82525050565b60006020820190506104ae600083018461048a565b92915050565b6000819050919050565b6104c7816104b4565b82525050565b60006020820190506104e260008301846104be565b92915050565b6000604051905090565b600080fd5b600080fd5b610505816104b4565b811461051057600080fd5b50565b600081359050610522816104fc565b92915050565b60006020828403121561053e5761053d6104f2565b5b600061054c84828501610513565b91505092915050565b600080fd5b600080fd5b6000601f19601f8301169050919050565b7f4e487b7100000000000000000000000000000000000000000000000000000000600052604160045260246000fd5b6105a88261055f565b810181811067ffffffffffffffff821117156105c7576105c6610570565b5b80604052505050565b60006105da6104e8565b90506105e6828261059f565b919050565b600067ffffffffffffffff82111561060657610605610570565b5b61060f8261055f565b9050602081019050919050565b82818337600083830152505050565b600061063e610639846105eb565b6105d0565b90508281526020810184848401111561065a5761065961055a565b5b61066584828561061c565b509392505050565b600082601f83011261068257610681610555565b5b813561069284826020860161062b565b91505092915050565b600067ffffffffffffffff8211156106b6576106b5610570565b5b602082029050602081019050919050565b600080fd5b600067ffffffffffffffff8211156106e7576106e6610570565b5b6106f08261055f565b9050602081019050919050565b600061071061070b846106cc565b6105d0565b90508281526020810184848401111561072c5761072b61055a565b5b61073784828561061c565b509392505050565b600082601f83011261075457610753610555565b5b81356107648482602086016106fd565b91505092915050565b600061078061077b8461069b565b6105d0565b905080838252602082019050602084028301858111156107a3576107a26106c7565b5b835b818110156107ea57803567ffffffffffffffff8111156107c8576107c7610555565b5b8086016107d5898261073f565b855260208501945050506020810190506107a5565b5050509392505050565b600082601f83011261080957610808610555565b5b813561081984826020860161076d565b91505092915050565b600067ffffffffffffffff82111561083d5761083c610570565b5b602082029050602081019050919050565b600061086161085c84610822565b6105d0565b90508083825260208201905060208402830185811115610884576108836106c7565b5b835b818110156108ad57806108998882610513565b845260208401935050602081019050610886565b5050509392505050565b600082601f8301126108cc576108cb610555565b5b81356108dc84826020860161084e565b91505092915050565b600080600080600060a08688031215610901576109006104f2565b5b600086013567ffffffffffffffff81111561091f5761091e6104f7565b5b61092b8882890161066d565b955050602086013567ffffffffffffffff81111561094c5761094b6104f7565b5b6109588882890161066d565b945050604086013567ffffffffffffffff811115610979576109786104f7565b5b610985888289016107f4565b935050606086013567ffffffffffffffff8111156109a6576109a56104f7565b5b6109b2888289016108b7565b92505060806109c388828901610513565b9150509295509295909350565b600082825260208201905092915050565b7f426f756e7479466163746f72793a206d7573742073656e64206d6f726520746860008201527f616e20302077656920746f2063726561746520626f756e747900000000000000602082015250565b6000610a3d6039836109d0565b9150610a48826109e1565b604082019050919050565b60006020820190508181036000830152610a6c81610a30565b9050919050565b600081519050919050565b60005b83811015610a9c578082015181840152602081019050610a81565b60008484015250505050565b6000610ab382610a73565b610abd81856109d0565b9350610acd818560208601610a7e565b610ad68161055f565b840191505092915050565b600081519050919050565b600082825260208201905092915050565b6000819050602082019050919050565b600081519050919050565b600082825260208201905092915050565b6000610b3482610b0d565b610b3e8185610b18565b9350610b4e818560208601610a7e565b610b578161055f565b840191505092915050565b6000610b6e8383610b29565b905092915050565b6000602082019050919050565b6000610b8e82610ae1565b610b988185610aec565b935083602082028501610baa85610afd565b8060005b85811015610be65784840389528151610bc78582610b62565b9450610bd283610b76565b925060208a01995050600181019050610bae565b50829750879550505050505092915050565b600081519050919050565b600082825260208201905092915050565b6000819050602082019050919050565b610c2d816104b4565b82525050565b6000610c3f8383610c24565b60208301905092915050565b6000602082019050919050565b6000610c6382610bf8565b610c6d8185610c03565b9350610c7883610c14565b8060005b83811015610ca9578151610c908882610c33565b9750610c9b83610c4b565b925050600181019050610c7c565b5085935050505092915050565b600060e082019050610ccb600083018a61048a565b8181036020830152610cdd8189610aa8565b90508181036040830152610cf18188610aa8565b90508181036060830152610d058187610b83565b90508181036080830152610d198186610c58565b9050610d2860a08301856104be565b610d3560c083018461048a565b98975050505050505050565b7f4e487b7100000000000000000000000000000000000000000000000000000000600052601160045260246000fd5b6000610d7b826104b4565b91507fffffffffffffffffffffffffffffffffffffffffffffffffffffffffffffffff8203610dad57610dac610d41565b5b600182019050919050565b7f455243313136373a20637265617465206661696c656400000000000000000000600082015250565b6000610dee6016836109d0565b9150610df982610db8565b602082019050919050565b60006020820190508181036000830152610e1d81610de1565b905091905056fea2646970667358221220992f49b901721d2d4f6692b3773be1376b6f978f664a27095cc8a3e0a28b1ced64736f6c63430008110033608060405234801561001057600080fd5b506141f4806100206000396000f3fe6080604052600436106101ee5760003560e01c806372269b7d1161010d578063c953210a116100a0578063d9a7b98b1161006f578063d9a7b98b146106fc578063f0fdf83414610727578063f25fed4814610764578063f2fde38b146107a1578063f60c7d9d146107ca576101ee565b8063c953210a1461062e578063ce6e1c4e14610657578063cf77cea814610694578063cffe3ba0146106bf576101ee565b8063b2fa1c9e116100dc578063b2fa1c9e1461055e578063c32e370e14610589578063c404ede9146105c6578063c680f410146105f1576101ee565b806372269b7d146104a05780637284e416146104cb5780637f43be53146104f65780638da5cb5b14610533576101ee565b80632b7ac3f311610185578063436e627011610154578063436e6270146103e45780634f8dd50d1461040f57806357293e741461044c578063715018a614610489576101ee565b80632b7ac3f31461033a5780632c5f4d63146103655780632d4bdb511461038e5780632ee94541146103b9576101ee565b806317e81c29116101c157806317e81c29146102905780631b2ccc09146102bb5780631c525905146102e657806321f103a61461030f576101ee565b806304b4b8c5146101f357806306fdde031461021e5780630d1120091461024957806316bb7c4614610274575b600080fd5b3480156101ff57600080fd5b50610208610807565b6040516102159190612080565b60405180910390f35b34801561022a57600080fd5b5061023361082d565b604051610240919061212b565b60405180910390f35b34801561025557600080fd5b5061025e6108bb565b60405161026b9190612169565b60405180910390f35b61028e60048036038101906102899190612579565b6108c0565b005b34801561029c57600080fd5b506102a5610b33565b6040516102b2919061269a565b60405180910390f35b3480156102c757600080fd5b506102d0610b39565b6040516102dd919061269a565b60405180910390f35b3480156102f257600080fd5b5061030d60048036038101906103089190612817565b610b3f565b005b34801561031b57600080fd5b506103246110e5565b6040516103319190612994565b60405180910390f35b34801561034657600080fd5b5061034f611173565b60405161035c9190612a15565b60405180910390f35b34801561037157600080fd5b5061038c60048036038101906103879190612ae2565b611199565b005b34801561039a57600080fd5b506103a361153a565b6040516103b0919061269a565b60405180910390f35b3480156103c557600080fd5b506103ce611540565b6040516103db9190612b6c565b60405180910390f35b3480156103f057600080fd5b506103f9611566565b6040516104069190612169565b60405180910390f35b34801561041b57600080fd5b5061043660048036038101906104319190612b87565b61156b565b604051610443919061269a565b60405180910390f35b34801561045857600080fd5b50610473600480360381019061046e9190612b87565b611586565b6040516104809190612994565b60405180910390f35b34801561049557600080fd5b5061049e611632565b005b3480156104ac57600080fd5b506104b5611646565b6040516104c29190612994565b60405180910390f35b3480156104d757600080fd5b506104e06116d4565b6040516104ed919061212b565b60405180910390f35b34801561050257600080fd5b5061051d60048036038101906105189190612bb4565b611762565b60405161052a9190612c0d565b60405180910390f35b34801561053f57600080fd5b5061054861177f565b6040516105559190612080565b60405180910390f35b34801561056a57600080fd5b506105736117a9565b6040516105809190612c43565b60405180910390f35b34801561059557600080fd5b506105b060048036038101906105ab9190612c5e565b6117bc565b6040516105bd9190612c43565b60405180910390f35b3480156105d257600080fd5b506105db61186a565b6040516105e89190612994565b60405180910390f35b3480156105fd57600080fd5b5061061860048036038101906106139190612b87565b6118f8565b604051610625919061269a565b60405180910390f35b34801561063a57600080fd5b5061065560048036038101906106509190612ce3565b611913565b005b34801561066357600080fd5b5061067e60048036038101906106799190612b87565b611a28565b60405161068b919061269a565b60405180910390f35b3480156106a057600080fd5b506106a9611a44565b6040516106b69190612169565b60405180910390f35b3480156106cb57600080fd5b506106e660048036038101906106e19190612bb4565b611a49565b6040516106f3919061269a565b60405180910390f35b34801561070857600080fd5b50610711611a77565b60405161071e9190612169565b60405180910390f35b34801561073357600080fd5b5061074e60048036038101906107499190612b87565b611a7c565b60405161075b919061269a565b60405180910390f35b34801561077057600080fd5b5061078b60048036038101906107869190612b87565b611a97565b604051610798919061269a565b60405180910390f35b3480156107ad57600080fd5b506107c860048036038101906107c39190612d10565b611abb565b005b3480156107d657600080fd5b506107f160048036038101906107ec9190612ae2565b611b3e565b6040516107fe9190612c43565b60405180910390f35b606c60009054906101000a900473ffffffffffffffffffffffffffffffffffffffff1681565b6067805461083a90612d6c565b80601f016020809104026020016040519081016040528092919081815260200182805461086690612d6c565b80156108b35780601f10610888576101008083540402835291602001916108b3565b820191906000526020600020905b81548152906001019060200180831161089657829003601f168201915b505050505081565b601281565b60008060019054906101000a900460ff161590508080156108f15750600160008054906101000a900460ff1660ff16105b8061091e575061090030611bec565b15801561091d5750600160008054906101000a900460ff1660ff16145b5b61095d576040517f08c379a000000000000000000000000000000000000000000000000000000000815260040161095490612e0f565b60405180910390fd5b60016000806101000a81548160ff021916908360ff160217905550801561099a576001600060016101000a81548160ff0219169083151502179055505b600034116109dd576040517f08c379a00000000000000000000000000000000000000000000000000000000081526004016109d490612ea1565b60405180910390fd5b8351855114610a21576040517f08c379a0000000000000000000000000000000000000000000000000000000008152600401610a1890612f33565b60405180910390fd5b610a29611c0f565b610a3288611abb565b8660679081610a4191906130f5565b508560689081610a5191906130f5565b508460699080519060200190610a68929190611e15565b5083606a9080519060200190610a7f929190611e6e565b5082606b8190555081606660006101000a81548173ffffffffffffffffffffffffffffffffffffffff021916908373ffffffffffffffffffffffffffffffffffffffff16021790555060016065819055508015610b295760008060016101000a81548160ff0219169083151502179055507f7f26b83ff96e1f2b6a682f133852f6798a09c465da95921460cefb38474024986001604051610b209190613202565b60405180910390a15b5050505050505050565b606b5481565b60795481565b600073ffffffffffffffffffffffffffffffffffffffff16606c60009054906101000a900473ffffffffffffffffffffffffffffffffffffffff1673ffffffffffffffffffffffffffffffffffffffff1614610bd0576040517f08c379a0000000000000000000000000000000000000000000000000000000008152600401610bc790613269565b60405180910390fd5b600073ffffffffffffffffffffffffffffffffffffffff168573ffffffffffffffffffffffffffffffffffffffff1603610c3f576040517f08c379a0000000000000000000000000000000000000000000000000000000008152600401610c36906132d5565b60405180910390fd5b600060698054905090506001816003610c589190613324565b610c629190613366565b825114610ca4576040517f08c379a0000000000000000000000000000000000000000000000000000000008152600401610c9b906133e6565b60405180910390fd5b6000805b82811015610d1157606a8181548110610cc457610cc3613406565b5b9060005260206000200154848281518110610ce257610ce1613406565b5b602002602001015103610cfe578180610cfa90613435565b9250505b8080610d0990613435565b915050610ca8565b50606b5482606483610d239190613324565b610d2d91906134ac565b1015610d6e576040517f08c379a0000000000000000000000000000000000000000000000000000000008152600401610d6590613529565b60405180910390fd5b60005b606980549050811015610eae576001605560126020610dfe88600287610d979190613324565b89610da29190613366565b81518110610db357610db2613406565b5b6020026020010151896001600289610dcb9190613324565b8b610dd69190613366565b610de09190613366565b81518110610df157610df0613406565b5b6020026020010151611762565b604051602001610e129594939291906135a0565b6040516020818303038152906040528051906020012060698281548110610e3c57610e3b613406565b5b90600052602060002001604051610e5391906136a2565b604051809103902014610e9b576040517f08c379a0000000000000000000000000000000000000000000000000000000008152600401610e9290613705565b60405180910390fd5b8080610ea690613435565b915050610d71565b5086607060006101000a81548173ffffffffffffffffffffffffffffffffffffffff021916908373ffffffffffffffffffffffffffffffffffffffff160217905550607060009054906101000a900473ffffffffffffffffffffffffffffffffffffffff1673ffffffffffffffffffffffffffffffffffffffff1663c32e370e878787876040518563ffffffff1660e01b8152600401610f519493929190613965565b602060405180830381865afa158015610f6e573d6000803e3d6000fd5b505050506040513d601f19601f82011682018060405250810190610f9291906139df565b610fd1576040517f08c379a0000000000000000000000000000000000000000000000000000000008152600401610fc890613a58565b60405180910390fd5b856071906002610fe2929190611ebb565b50846073906002610ff4929190611efb565b50836077906002611006929190611ebb565b50828260036110159190613324565b8151811061102657611025613406565b5b602002602001015160798190555089606d90816110439190613abe565b5088606e90816110539190613abe565b5087606f90816110639190613abe565b5033606c60006101000a81548173ffffffffffffffffffffffffffffffffffffffff021916908373ffffffffffffffffffffffffffffffffffffffff1602179055507f1b0c0dd832de03dc3b6f1d5ec24c8bd3b9ee786e380c868cfce39066dabf41fc60405160405180910390a1600260658190555050505050505050505050565b606d80546110f290612d6c565b80601f016020809104026020016040519081016040528092919081815260200182805461111e90612d6c565b801561116b5780601f106111405761010080835404028352916020019161116b565b820191906000526020600020905b81548152906001019060200180831161114e57829003601f168201915b505050505081565b607060009054906101000a900473ffffffffffffffffffffffffffffffffffffffff1681565b606c60009054906101000a900473ffffffffffffffffffffffffffffffffffffffff1673ffffffffffffffffffffffffffffffffffffffff163373ffffffffffffffffffffffffffffffffffffffff1614611229576040517f08c379a000000000000000000000000000000000000000000000000000000000815260040161122090613c02565b60405180910390fd5b607a60009054906101000a900460ff16611278576040517f08c379a000000000000000000000000000000000000000000000000000000000815260040161126f90613c6e565b60405180910390fd5b600047116112bb576040517f08c379a00000000000000000000000000000000000000000000000000000000081526004016112b290613cda565b60405180910390fd5b8060006103ed81106112d0576112cf613406565b5b602002015160795414611318576040517f08c379a000000000000000000000000000000000000000000000000000000000815260040161130f90613d6c565b60405180910390fd5b806103eb6103ed811061132e5761132d613406565b5b6020020151607b60006002811061134857611347613406565b5b01541480156113865750806103ec6103ed811061136857611367613406565b5b6020020151607b60016002811061138257611381613406565b5b0154145b6113c5576040517f08c379a00000000000000000000000000000000000000000000000000000000081526004016113bc90613dd8565b60405180910390fd5b606660009054906101000a900473ffffffffffffffffffffffffffffffffffffffff1673ffffffffffffffffffffffffffffffffffffffff1663a3042857858585856040518563ffffffff1660e01b81526004016114269493929190613e7d565b602060405180830381865afa158015611443573d6000803e3d6000fd5b505050506040513d601f19601f8201168201806040525081019061146791906139df565b6114a6576040517f08c379a000000000000000000000000000000000000000000000000000000000815260040161149d90613f10565b60405180910390fd5b80607d906103ed6114b8929190611f4b565b503373ffffffffffffffffffffffffffffffffffffffff166108fc479081150290604051600060405180830381858888f193505050501580156114ff573d6000803e3d6000fd5b507f861fbe132e4ab69b880ef4638db144df98fccfc72599a4a18bc953a261eaa2c360405160405180910390a1600460658190555050505050565b60655481565b606660009054906101000a900473ffffffffffffffffffffffffffffffffffffffff1681565b602081565b6077816002811061157b57600080fd5b016000915090505481565b6069818154811061159657600080fd5b9060005260206000200160009150905080546115b190612d6c565b80601f01602080910402602001604051908101604052809291908181526020018280546115dd90612d6c565b801561162a5780601f106115ff5761010080835404028352916020019161162a565b820191906000526020600020905b81548152906001019060200180831161160d57829003601f168201915b505050505081565b61163a611c68565b6116446000611ce6565b565b606f805461165390612d6c565b80601f016020809104026020016040519081016040528092919081815260200182805461167f90612d6c565b80156116cc5780601f106116a1576101008083540402835291602001916116cc565b820191906000526020600020905b8154815290600101906020018083116116af57829003601f168201915b505050505081565b606880546116e190612d6c565b80601f016020809104026020016040519081016040528092919081815260200182805461170d90612d6c565b801561175a5780601f1061172f5761010080835404028352916020019161175a565b820191906000526020600020905b81548152906001019060200180831161173d57829003601f168201915b505050505081565b600081608084901b6117749190613366565b60001b905092915050565b6000603360009054906101000a900473ffffffffffffffffffffffffffffffffffffffff16905090565b607a60009054906101000a900460ff1681565b6000607060009054906101000a900473ffffffffffffffffffffffffffffffffffffffff1673ffffffffffffffffffffffffffffffffffffffff1663c32e370e868686866040518563ffffffff1660e01b815260040161181f9493929190613965565b602060405180830381865afa15801561183c573d6000803e3d6000fd5b505050506040513d601f19601f8201168201806040525081019061186091906139df565b9050949350505050565b606e805461187790612d6c565b80601f01602080910402602001604051908101604052809291908181526020018280546118a390612d6c565b80156118f05780601f106118c5576101008083540402835291602001916118f0565b820191906000526020600020905b8154815290600101906020018083116118d357829003601f168201915b505050505081565b607b816002811061190857600080fd5b016000915090505481565b61191b611c68565b607a60009054906101000a900460ff161561196b576040517f08c379a000000000000000000000000000000000000000000000000000000000815260040161196290613f7c565b60405180910390fd5b6000607160006002811061198257611981613406565b5b0154036119c4576040517f08c379a00000000000000000000000000000000000000000000000000000000081526004016119bb9061400e565b60405180910390fd5b80607b9060026119d5929190611ebb565b506001607a60006101000a81548160ff0219169083151502179055507f45548bf4d20d74cd3a7a30bc6c9864aa12f0791d19a62c7e6978a55f444c98ca60405160405180910390a1600360658190555050565b607d816103ed8110611a3957600080fd5b016000915090505481565b600181565b60738260028110611a5957600080fd5b600202018160028110611a6b57600080fd5b01600091509150505481565b605581565b60718160028110611a8c57600080fd5b016000915090505481565b606a8181548110611aa757600080fd5b906000526020600020016000915090505481565b611ac3611c68565b600073ffffffffffffffffffffffffffffffffffffffff168173ffffffffffffffffffffffffffffffffffffffff1603611b32576040517f08c379a0000000000000000000000000000000000000000000000000000000008152600401611b29906140a0565b60405180910390fd5b611b3b81611ce6565b50565b6000606660009054906101000a900473ffffffffffffffffffffffffffffffffffffffff1673ffffffffffffffffffffffffffffffffffffffff1663a3042857868686866040518563ffffffff1660e01b8152600401611ba19493929190613e7d565b602060405180830381865afa158015611bbe573d6000803e3d6000fd5b505050506040513d601f19601f82011682018060405250810190611be291906139df565b9050949350505050565b6000808273ffffffffffffffffffffffffffffffffffffffff163b119050919050565b600060019054906101000a900460ff16611c5e576040517f08c379a0000000000000000000000000000000000000000000000000000000008152600401611c5590614132565b60405180910390fd5b611c66611dac565b565b611c70611e0d565b73ffffffffffffffffffffffffffffffffffffffff16611c8e61177f565b73ffffffffffffffffffffffffffffffffffffffff1614611ce4576040517f08c379a0000000000000000000000000000000000000000000000000000000008152600401611cdb9061419e565b60405180910390fd5b565b6000603360009054906101000a900473ffffffffffffffffffffffffffffffffffffffff16905081603360006101000a81548173ffffffffffffffffffffffffffffffffffffffff021916908373ffffffffffffffffffffffffffffffffffffffff1602179055508173ffffffffffffffffffffffffffffffffffffffff168173ffffffffffffffffffffffffffffffffffffffff167f8be0079c531659141344cd1fd0a4f28419497f9722a3daafe3b4186f6b6457e060405160405180910390a35050565b600060019054906101000a900460ff16611dfb576040517f08c379a0000000000000000000000000000000000000000000000000000000008152600401611df290614132565b60405180910390fd5b611e0b611e06611e0d565b611ce6565b565b600033905090565b828054828255906000526020600020908101928215611e5d579160200282015b82811115611e5c578251829081611e4c9190613abe565b5091602001919060010190611e35565b5b509050611e6a9190611f8c565b5090565b828054828255906000526020600020908101928215611eaa579160200282015b82811115611ea9578251825591602001919060010190611e8e565b5b509050611eb79190611fb0565b5090565b8260028101928215611eea579160200282015b82811115611ee9578251825591602001919060010190611ece565b5b509050611ef79190611fb0565b5090565b82600280028101928215611f3a579160200282015b82811115611f3957825182906002611f29929190611ebb565b5091602001919060020190611f10565b5b509050611f479190611fcd565b5090565b826103ed8101928215611f7b579160200282015b82811115611f7a578251825591602001919060010190611f5f565b5b509050611f889190611fb0565b5090565b5b80821115611fac5760008181611fa39190611ff1565b50600101611f8d565b5090565b5b80821115611fc9576000816000905550600101611fb1565b5090565b5b80821115611fed5760008181611fe49190612031565b50600201611fce565b5090565b508054611ffd90612d6c565b6000825580601f1061200f575061202e565b601f01602090049060005260206000209081019061202d9190611fb0565b5b50565b506000815560010160009055565b600073ffffffffffffffffffffffffffffffffffffffff82169050919050565b600061206a8261203f565b9050919050565b61207a8161205f565b82525050565b60006020820190506120956000830184612071565b92915050565b600081519050919050565b600082825260208201905092915050565b60005b838110156120d55780820151818401526020810190506120ba565b60008484015250505050565b6000601f19601f8301169050919050565b60006120fd8261209b565b61210781856120a6565b93506121178185602086016120b7565b612120816120e1565b840191505092915050565b6000602082019050818103600083015261214581846120f2565b905092915050565b600060ff82169050919050565b6121638161214d565b82525050565b600060208201905061217e600083018461215a565b92915050565b6000604051905090565b600080fd5b600080fd5b6121a18161205f565b81146121ac57600080fd5b50565b6000813590506121be81612198565b92915050565b600080fd5b600080fd5b7f4e487b7100000000000000000000000000000000000000000000000000000000600052604160045260246000fd5b612206826120e1565b810181811067ffffffffffffffff82111715612225576122246121ce565b5b80604052505050565b6000612238612184565b905061224482826121fd565b919050565b600067ffffffffffffffff821115612264576122636121ce565b5b61226d826120e1565b9050602081019050919050565b82818337600083830152505050565b600061229c61229784612249565b61222e565b9050828152602081018484840111156122b8576122b76121c9565b5b6122c384828561227a565b509392505050565b600082601f8301126122e0576122df6121c4565b5b81356122f0848260208601612289565b91505092915050565b600067ffffffffffffffff821115612314576123136121ce565b5b602082029050602081019050919050565b600080fd5b600067ffffffffffffffff821115612345576123446121ce565b5b61234e826120e1565b9050602081019050919050565b600061236e6123698461232a565b61222e565b90508281526020810184848401111561238a576123896121c9565b5b61239584828561227a565b509392505050565b600082601f8301126123b2576123b16121c4565b5b81356123c284826020860161235b565b91505092915050565b60006123de6123d9846122f9565b61222e565b9050808382526020820190506020840283018581111561240157612400612325565b5b835b8181101561244857803567ffffffffffffffff811115612426576124256121c4565b5b808601612433898261239d565b85526020850194505050602081019050612403565b5050509392505050565b600082601f830112612467576124666121c4565b5b81356124778482602086016123cb565b91505092915050565b600067ffffffffffffffff82111561249b5761249a6121ce565b5b602082029050602081019050919050565b6000819050919050565b6124bf816124ac565b81146124ca57600080fd5b50565b6000813590506124dc816124b6565b92915050565b60006124f56124f084612480565b61222e565b9050808382526020820190506020840283018581111561251857612517612325565b5b835b81811015612541578061252d88826124cd565b84526020840193505060208101905061251a565b5050509392505050565b600082601f8301126125605761255f6121c4565b5b81356125708482602086016124e2565b91505092915050565b600080600080600080600060e0888a0312156125985761259761218e565b5b60006125a68a828b016121af565b975050602088013567ffffffffffffffff8111156125c7576125c6612193565b5b6125d38a828b016122cb565b965050604088013567ffffffffffffffff8111156125f4576125f3612193565b5b6126008a828b016122cb565b955050606088013567ffffffffffffffff81111561262157612620612193565b5b61262d8a828b01612452565b945050608088013567ffffffffffffffff81111561264e5761264d612193565b5b61265a8a828b0161254b565b93505060a061266b8a828b016124cd565b92505060c061267c8a828b016121af565b91505092959891949750929550565b612694816124ac565b82525050565b60006020820190506126af600083018461268b565b92915050565b600067ffffffffffffffff8211156126d0576126cf6121ce565b5b602082029050919050565b60006126ee6126e9846126b5565b61222e565b9050806020840283018581111561270857612707612325565b5b835b81811015612731578061271d88826124cd565b84526020840193505060208101905061270a565b5050509392505050565b600082601f8301126127505761274f6121c4565b5b600261275d8482856126db565b91505092915050565b600067ffffffffffffffff821115612781576127806121ce565b5b602082029050919050565b600061279f61279a84612766565b61222e565b905080604084028301858111156127b9576127b8612325565b5b835b818110156127e257806127ce888261273b565b8452602084019350506040810190506127bb565b5050509392505050565b600082601f830112612801576128006121c4565b5b600261280e84828561278c565b91505092915050565b6000806000806000806000806101a0898b0312156128385761283761218e565b5b600089013567ffffffffffffffff81111561285657612855612193565b5b6128628b828c0161239d565b985050602089013567ffffffffffffffff81111561288357612882612193565b5b61288f8b828c0161239d565b975050604089013567ffffffffffffffff8111156128b0576128af612193565b5b6128bc8b828c0161239d565b96505060606128cd8b828c016121af565b95505060806128de8b828c0161273b565b94505060c06128ef8b828c016127ec565b9350506101406129018b828c0161273b565b92505061018089013567ffffffffffffffff81111561292357612922612193565b5b61292f8b828c0161254b565b9150509295985092959890939650565b600081519050919050565b600082825260208201905092915050565b60006129668261293f565b612970818561294a565b93506129808185602086016120b7565b612989816120e1565b840191505092915050565b600060208201905081810360008301526129ae818461295b565b905092915050565b6000819050919050565b60006129db6129d66129d18461203f565b6129b6565b61203f565b9050919050565b60006129ed826129c0565b9050919050565b60006129ff826129e2565b9050919050565b612a0f816129f4565b82525050565b6000602082019050612a2a6000830184612a06565b92915050565b600067ffffffffffffffff821115612a4b57612a4a6121ce565b5b602082029050919050565b6000612a69612a6484612a30565b61222e565b90508060208402830185811115612a8357612a82612325565b5b835b81811015612aac5780612a9888826124cd565b845260208401935050602081019050612a85565b5050509392505050565b600082601f830112612acb57612aca6121c4565b5b6103ed612ad9848285612a56565b91505092915050565b600080600080617ea08587031215612afd57612afc61218e565b5b6000612b0b8782880161273b565b9450506040612b1c878288016127ec565b93505060c0612b2d8782880161273b565b925050610100612b3f87828801612ab6565b91505092959194509250565b6000612b56826129e2565b9050919050565b612b6681612b4b565b82525050565b6000602082019050612b816000830184612b5d565b92915050565b600060208284031215612b9d57612b9c61218e565b5b6000612bab848285016124cd565b91505092915050565b60008060408385031215612bcb57612bca61218e565b5b6000612bd9858286016124cd565b9250506020612bea858286016124cd565b9150509250929050565b6000819050919050565b612c0781612bf4565b82525050565b6000602082019050612c226000830184612bfe565b92915050565b60008115159050919050565b612c3d81612c28565b82525050565b6000602082019050612c586000830184612c34565b92915050565b6000806000806101208587031215612c7957612c7861218e565b5b6000612c878782880161273b565b9450506040612c98878288016127ec565b93505060c0612ca98782880161273b565b92505061010085013567ffffffffffffffff811115612ccb57612cca612193565b5b612cd78782880161254b565b91505092959194509250565b600060408284031215612cf957612cf861218e565b5b6000612d078482850161273b565b91505092915050565b600060208284031215612d2657612d2561218e565b5b6000612d34848285016121af565b91505092915050565b7f4e487b7100000000000000000000000000000000000000000000000000000000600052602260045260246000fd5b60006002820490506001821680612d8457607f821691505b602082108103612d9757612d96612d3d565b5b50919050565b7f496e697469616c697a61626c653a20636f6e747261637420697320616c72656160008201527f647920696e697469616c697a6564000000000000000000000000000000000000602082015250565b6000612df9602e836120a6565b9150612e0482612d9d565b604082019050919050565b60006020820190508181036000830152612e2881612dec565b9050919050565b7f426f756e747920726577617264206d757374206265206772656174657220746860008201527f616e203000000000000000000000000000000000000000000000000000000000602082015250565b6000612e8b6024836120a6565b9150612e9682612e2f565b604082019050919050565b60006020820190508181036000830152612eba81612e7e565b9050919050565b7f496e76616c6964206461746143494473206f72206c6162656c73206c656e677460008201527f6800000000000000000000000000000000000000000000000000000000000000602082015250565b6000612f1d6021836120a6565b9150612f2882612ec1565b604082019050919050565b60006020820190508181036000830152612f4c81612f10565b9050919050565b60008190508160005260206000209050919050565b60006020601f8301049050919050565b600082821b905092915050565b600060088302612fb57fffffffffffffffffffffffffffffffffffffffffffffffffffffffffffffffff82612f78565b612fbf8683612f78565b95508019841693508086168417925050509392505050565b6000612ff2612fed612fe8846124ac565b6129b6565b6124ac565b9050919050565b6000819050919050565b61300c83612fd7565b61302061301882612ff9565b848454612f85565b825550505050565b600090565b613035613028565b613040818484613003565b505050565b5b818110156130645761305960008261302d565b600181019050613046565b5050565b601f8211156130a95761307a81612f53565b61308384612f68565b81016020851015613092578190505b6130a661309e85612f68565b830182613045565b50505b505050565b600082821c905092915050565b60006130cc600019846008026130ae565b1980831691505092915050565b60006130e583836130bb565b9150826002028217905092915050565b6130fe8261209b565b67ffffffffffffffff811115613117576131166121ce565b5b6131218254612d6c565b61312c828285613068565b600060209050601f83116001811461315f576000841561314d578287015190505b61315785826130d9565b8655506131bf565b601f19841661316d86612f53565b60005b8281101561319557848901518255600182019150602085019450602081019050613170565b868310156131b257848901516131ae601f8916826130bb565b8355505b6001600288020188555050505b505050505050565b6000819050919050565b60006131ec6131e76131e2846131c7565b6129b6565b61214d565b9050919050565b6131fc816131d1565b82525050565b600060208201905061321760008301846131f3565b92915050565b7f426f756e747920616c7265616479207375626d69747465640000000000000000600082015250565b60006132536018836120a6565b915061325e8261321d565b602082019050919050565b6000602082019050818103600083015261328281613246565b9050919050565b7f496e76616c696420766572696669657220616464726573730000000000000000600082015250565b60006132bf6018836120a6565b91506132ca82613289565b602082019050919050565b600060208201905081810360008301526132ee816132b2565b9050919050565b7f4e487b7100000000000000000000000000000000000000000000000000000000600052601160045260246000fd5b600061332f826124ac565b915061333a836124ac565b9250828202613348816124ac565b9150828204841483151761335f5761335e6132f5565b5b5092915050565b6000613371826124ac565b915061337c836124ac565b9250828201905080821115613394576133936132f5565b5b92915050565b7f496e76616c696420696e707574206c656e677468000000000000000000000000600082015250565b60006133d06014836120a6565b91506133db8261339a565b602082019050919050565b600060208201905081810360008301526133ff816133c3565b9050919050565b7f4e487b7100000000000000000000000000000000000000000000000000000000600052603260045260246000fd5b6000613440826124ac565b91507fffffffffffffffffffffffffffffffffffffffffffffffffffffffffffffffff8203613472576134716132f5565b5b600182019050919050565b7f4e487b7100000000000000000000000000000000000000000000000000000000600052601260045260246000fd5b60006134b7826124ac565b91506134c2836124ac565b9250826134d2576134d161347d565b5b828204905092915050565b7f4163637572616379207468726573686f6c64206e6f74206d6574000000000000600082015250565b6000613513601a836120a6565b915061351e826134dd565b602082019050919050565b6000602082019050818103600083015261354281613506565b9050919050565b60008160f81b9050919050565b600061356182613549565b9050919050565b6135796135748261214d565b613556565b82525050565b6000819050919050565b61359a61359582612bf4565b61357f565b82525050565b60006135ac8288613568565b6001820191506135bc8287613568565b6001820191506135cc8286613568565b6001820191506135dc8285613568565b6001820191506135ec8284613589565b6020820191508190509695505050505050565b600081905092915050565b60008190508160005260206000209050919050565b6000815461362c81612d6c565b61363681866135ff565b94506001821660008114613651576001811461366657613699565b60ff1983168652811515820286019350613699565b61366f8561360a565b60005b8381101561369157815481890152600182019150602081019050613672565b838801955050505b50505092915050565b60006136ae828461361f565b915081905092915050565b7f4461746120434944206d69736d61746368000000000000000000000000000000600082015250565b60006136ef6011836120a6565b91506136fa826136b9565b602082019050919050565b6000602082019050818103600083015261371e816136e2565b9050919050565b600060029050919050565b600081905092915050565b6000819050919050565b61374e816124ac565b82525050565b60006137608383613745565b60208301905092915050565b6000602082019050919050565b61378281613725565b61378c8184613730565b92506137978261373b565b8060005b838110156137c85781516137af8782613754565b96506137ba8361376c565b92505060018101905061379b565b505050505050565b600060029050919050565b600081905092915050565b6000819050919050565b600081905092915050565b61380481613725565b61380e81846137f0565b92506138198261373b565b8060005b8381101561384a5781516138318782613754565b965061383c8361376c565b92505060018101905061381d565b505050505050565b600061385e83836137fb565b60408301905092915050565b6000602082019050919050565b613880816137d0565b61388a81846137db565b9250613895826137e6565b8060005b838110156138c65781516138ad8782613852565b96506138b88361386a565b925050600181019050613899565b505050505050565b600081519050919050565b600082825260208201905092915050565b6000819050602082019050919050565b6000602082019050919050565b6000613912826138ce565b61391c81856138d9565b9350613927836138ea565b8060005b8381101561395857815161393f8882613754565b975061394a836138fa565b92505060018101905061392b565b5085935050505092915050565b60006101208201905061397b6000830187613779565b6139886040830186613877565b61399560c0830185613779565b8181036101008301526139a88184613907565b905095945050505050565b6139bc81612c28565b81146139c757600080fd5b50565b6000815190506139d9816139b3565b92915050565b6000602082840312156139f5576139f461218e565b5b6000613a03848285016139ca565b91505092915050565b7f496e76616c69642070726f6f6600000000000000000000000000000000000000600082015250565b6000613a42600d836120a6565b9150613a4d82613a0c565b602082019050919050565b60006020820190508181036000830152613a7181613a35565b9050919050565b601f821115613ab957613a8a8161360a565b613a9384612f68565b81016020851015613aa2578190505b613ab6613aae85612f68565b830182613045565b50505b505050565b613ac78261293f565b67ffffffffffffffff811115613ae057613adf6121ce565b5b613aea8254612d6c565b613af5828285613a78565b600060209050601f831160018114613b285760008415613b16578287015190505b613b2085826130d9565b865550613b88565b601f198416613b368661360a565b60005b82811015613b5e57848901518255600182019150602085019450602081019050613b39565b86831015613b7b5784890151613b77601f8916826130bb565b8355505b6001600288020188555050505b505050505050565b7f4f6e6c7920626f756e74792068756e7465722063616e20636c61696d20626f7560008201527f6e74790000000000000000000000000000000000000000000000000000000000602082015250565b6000613bec6023836120a6565b9150613bf782613b90565b604082019050919050565b60006020820190508181036000830152613c1b81613bdf565b9050919050565b7f426f756e7479206973206e6f7420636f6d706c65746500000000000000000000600082015250565b6000613c586016836120a6565b9150613c6382613c22565b602082019050919050565b60006020820190508181036000830152613c8781613c4b565b9050919050565b7f426f756e747920616c726561647920636c61696d656400000000000000000000600082015250565b6000613cc46016836120a6565b9150613ccf82613c8e565b602082019050919050565b60006020820190508181036000830152613cf381613cb7565b9050919050565b7f4d6f64656c206861736820646f6573206e6f74206d61746368207375626d697460008201527f7465642070726f6f660000000000000000000000000000000000000000000000602082015250565b6000613d566029836120a6565b9150613d6182613cfa565b604082019050919050565b60006020820190508181036000830152613d8581613d49565b9050919050565b7f5075626c6963206b65797320646f206e6f74206d617463680000000000000000600082015250565b6000613dc26018836120a6565b9150613dcd82613d8c565b602082019050919050565b60006020820190508181036000830152613df181613db5565b9050919050565b60006103ed9050919050565b600081905092915050565b6000819050919050565b6000602082019050919050565b613e2f81613df8565b613e398184613e04565b9250613e4482613e0f565b8060005b83811015613e75578151613e5c8782613754565b9650613e6783613e19565b925050600181019050613e48565b505050505050565b6000617ea082019050613e936000830187613779565b613ea06040830186613877565b613ead60c0830185613779565b613ebb610100830184613e26565b95945050505050565b7f496e76616c696420656e6372797074696f6e0000000000000000000000000000600082015250565b6000613efa6012836120a6565b9150613f0582613ec4565b602082019050919050565b60006020820190508181036000830152613f2981613eed565b9050919050565b7f426f756e747920697320616c726561647920636f6d706c657465000000000000600082015250565b6000613f66601a836120a6565b9150613f7182613f30565b602082019050919050565b60006020820190508181036000830152613f9581613f59565b9050919050565b7f426f756e74792068756e74657220686173206e6f74207375626d69747465642060008201527f70726f6f66000000000000000000000000000000000000000000000000000000602082015250565b6000613ff86025836120a6565b915061400382613f9c565b604082019050919050565b6000602082019050818103600083015261402781613feb565b9050919050565b7f4f776e61626c653a206e6577206f776e657220697320746865207a65726f206160008201527f6464726573730000000000000000000000000000000000000000000000000000602082015250565b600061408a6026836120a6565b91506140958261402e565b604082019050919050565b600060208201905081810360008301526140b98161407d565b9050919050565b7f496e697469616c697a61626c653a20636f6e7472616374206973206e6f74206960008201527f6e697469616c697a696e67000000000000000000000000000000000000000000602082015250565b600061411c602b836120a6565b9150614127826140c0565b604082019050919050565b6000602082019050818103600083015261414b8161410f565b9050919050565b7f4f776e61626c653a2063616c6c6572206973206e6f7420746865206f776e6572600082015250565b60006141886020836120a6565b915061419382614152565b602082019050919050565b600060208201905081810360008301526141b78161417b565b905091905056fea2646970667358221220cfb50d4813047c2e0687e84983ff4bdfa563124a2a1fdb7c0da00280aff3883f64736f6c63430008110033",
  "devdoc": {
    "kind": "dev",
    "methods": {},
    "version": 1
  },
  "userdoc": {
    "kind": "user",
    "methods": {},
    "version": 1
  },
  "storageLayout": {
    "storage": [
      {
        "astId": 1325,
        "contract": "contracts/BountyFactory.sol:BountyFactory",
        "label": "bounties",
        "offset": 0,
        "slot": "0",
        "type": "t_array(t_address)dyn_storage"
      },
      {
        "astId": 1327,
        "contract": "contracts/BountyFactory.sol:BountyFactory",
        "label": "bountyCount",
        "offset": 0,
        "slot": "1",
        "type": "t_uint256"
      }
    ],
    "types": {
      "t_address": {
        "encoding": "inplace",
        "label": "address",
        "numberOfBytes": "20"
      },
      "t_array(t_address)dyn_storage": {
        "base": "t_address",
        "encoding": "dynamic_array",
        "label": "address[]",
        "numberOfBytes": "32"
      },
      "t_uint256": {
        "encoding": "inplace",
        "label": "uint256",
        "numberOfBytes": "32"
      }
    }
  }
}